:100000000C9446000C9465000C9465000C946500FB
:100010000C9465000C9465000C9465000C946500CC
:100020000C9465000C9465000C9465000C946500BC
:100030000C9465000C9465000C9465000C946500AC
:100040000C9465000C9465000C9465000C9465009C
:100050000C9465000C9465000C9465000C9465008C
:100060000C9465000C9465000C9465000C9465007C
:100070000C9465000C9465000C9465000C9465006C
:100080000C9465000C9465000C94650011241FBE4F
:10009000CFEFD0E4DEBFCDBF11E0A0E0B1E0E8E5F6
:1000A000F3E000E00BBF02C007900D92AE30B10745
:1000B000D9F711E0AEE0B1E001C01D92A031B10767
:1000C000E1F70E948D010C94AA010C940000CF93DB
:1000D000DF9300D01F92CDB7DEB789837B836A831D
:1000E00089818A3031F48A819B81BC018DE00E9434
:1000F000670080EC90E0FC018081882F90E08072A6
:1001000099270097B1F386EC90E02981FC012083C8
:1001100080E090E00F900F900F90DF91CF910895C5
:10012000CF93DF9300D000D0CDB7DEB780E290E070
:10013000FC0180818170898380E290E0FC018081F4
:1001400082708A8380E290E0FC01808184708B83DE
:1001500080E290E0FC01808180788C8380910E01A8
:1001600090910F018230910509F43EC083309105D2
:1001700030F4009789F081309105A9F08EC0843069
:10018000910509F470C08430910508F455C085309C
:10019000910509F479C081C081E090E090930F014E
:1001A00080930E017FC08981882369F48A81882326
:1001B00051F48B81882339F481E090E090930F0112
:1001C00080930E0110C08981882369F48A81882375
:1001D00051F48B81882339F082E090E090930F01F5
:1001E00080930E015FC05EC08981882369F48A8193
:1001F000882351F48B81882339F082E090E090933A
:100200000F0180930E0117C08981882369F48A81C8
:10021000882351F48B81882339F483E090E0909314
:100220000F0180930E0107C081E090E090930F01D1
:1002300080930E0137C036C08981882369F48A8192
:10024000882351F08B81882339F484E090E09093E7
:100250000F0180930E0126C081E090E090930F0182
:1002600080930E011FC08C81882339F085E090E0D7
:1002700090930F0180930E0115C084E090E090935D
:100280000F0180930E010EC08C81882331F481E030
:1002900090E090930F0180930E0110920F01109245
:1002A0000E01000080910E0190910F0183309105A5
:1002B000E1F08430910538F48130910559F08230B5
:1002C000910569F023C084309105A9F0853091052E
:1002D000B9F01CC085E290E0FC01108217C085E2F5
:1002E00090E021E0FC01208311C085E290E021E054
:1002F000FC0120830BC085E290E0FC01108206C067
:1003000085E290E021E0FC01208300000F900F9037
:100310000F900F90DF91CF910895CF93DF93CDB7DA
:10032000DEB781E290E0FC01108282E290E02FEFE4
:10033000FC01208384E290E02FE0FC01208385E231
:1003400090E0FC01108210920F0110920E010E94A9
:080350009000FDCFF894FFCFEF
:0E03580000000002000000006700000000002E
:00000001FF
