:100000000C9446000C9465000C9465000C946500FB
:100010000C9465000C9465000C9465000C946500CC
:100020000C9465000C9465000C9465000C946500BC
:100030000C9465000C9465000C9465000C946500AC
:100040000C9465000C9465000C9465000C9465009C
:100050000C9465000C9465000C9465000C9465008C
:100060000C9465000C9465000C9465000C9465007C
:100070000C9465000C9465000C9465000C9465006C
:100080000C9465000C9465000C94650011241FBE4F
:10009000CFEFD0E4DEBFCDBF11E0A0E0B1E0E6ECF1
:1000A000F2E000E00BBF02C007900D92AE30B10746
:1000B000D9F711E0AEE0B1E001C01D92A031B10767
:1000C000E1F70E9444010C9461010C940000CF936D
:1000D000DF9300D01F92CDB7DEB789837B836A831D
:1000E00089818A3031F48A819B81BC018DE00E9434
:1000F000670080EC90E0FC018081882F90E08072A6
:1001000099270097B1F386EC90E02981FC012083C8
:1001100080E090E00F900F900F90DF91CF910895C5
:10012000CF93DF931F92CDB7DEB780E290E0FC0162
:1001300080818170898380910E0190910F018230BE
:10014000910569F18330910530F4009761F08130B9
:10015000910581F063C083309105B1F18430910540
:1001600009F447C05BC081E090E090930F01809359
:100170000E0159C08981882339F481E090E0909381
:100180000F0180930E010AC08981882339F082E033
:1001900090E090930F0180930E0145C044C0898187
:1001A000882339F082E090E090930F0180930E0154
:1001B0000AC08981882339F483E090E090930F018D
:1001C00080930E0130C02FC08981882339F483E0E9
:1001D00090E090930F0180930E010AC089818823DB
:1001E00039F084E090E090930F0180930E011BC0E2
:1001F0001AC08981882339F084E090E090930F0140
:1002000080930E010AC08981882339F482E090E04E
:1002100090930F0180930E0106C005C010920F014C
:1002200010920E01000080910E0190910F0182301A
:100230009105A1F08330910520F48130910541F0C2
:100240001FC08330910581F08430910599F018C06A
:1002500085E290E021E0FC01208312C085E290E07D
:1002600022E0FC0120830CC085E290E022E0FC014A
:10027000208306C085E290E021E0FC01208300009D
:100280000F90DF91CF910895CF93DF93CDB7DEB775
:1002900081E290E0FC01108282E290E02FEFFC010D
:1002A000208384E290E02FEFFC01208385E290E040
:1002B000FC01108210920F0110920E010E9490001A
:0602C000FDCFF894FFCF12
:0E02C6000000000200000000670000000000C1
:00000001FF
