:100000000C9446000C9465000C9465000C946500FB
:100010000C9465000C9465000C9465000C946500CC
:100020000C9465000C9465000C9465000C946500BC
:100030000C9465000C9465000C9465000C946500AC
:100040000C9465000C9465000C9465000C9465009C
:100050000C9465000C9465000C9465000C9465008C
:100060000C9465000C9465000C9465000C9465007C
:100070000C9465000C9465000C9465000C9465006C
:100080000C9465000C9465000C94650011241FBE4F
:10009000CFEFD0E4DEBFCDBF11E0A0E0B1E0E2E4FD
:1000A000F3E000E00BBF02C007900D92AE30B10745
:1000B000D9F711E0AEE0B1E001C01D92A031B10767
:1000C000E1F70E9482010C949F010C940000CF93F1
:1000D000DF9300D01F92CDB7DEB789837B836A831D
:1000E00089818A3031F48A819B81BC018DE00E9434
:1000F000670080EC90E0FC018081882F90E08072A6
:1001000099270097B1F386EC90E02981FC012083C8
:1001100080E090E00F900F900F90DF91CF910895C5
:10012000CF93DF9300D0CDB7DEB780E290E0FC0143
:1001300080818370898387E08A8380910E0190910A
:100140000F0182309105C1F18330910530F40097A1
:1001500069F08130910589F08CC08330910509F4F4
:100160004AC08430910509F465C083C081E090E005
:1001700090930F0180930E0181C08981813039F401
:1001800082E090E090930F0180930E0114C089816A
:10019000823039F483E090E090930F0180930E0158
:1001A0000AC08981833039F484E090E090930F0194
:1001B00080930E0163C062C08981813039F482E08E
:1001C00090E090930F0180930E0114C089818230DA
:1001D00039F483E090E090930F0180930E010AC000
:1001E0008981833039F484E090E090930F0180930B
:1001F0000E0144C043C08981813039F482E090E02F
:1002000090930F0180930E0114C08981823039F4DC
:1002100083E090E090930F0180930E010AC08981E2
:10022000833039F484E090E090930F0180930E01C5
:1002300025C024C08981813039F482E090E0909318
:100240000F0180930E0114C08981823039F483E05C
:1002500090E090930F0180930E010AC08981833052
:1002600039F484E090E090930F0180930E0106C072
:1002700005C010920F0110920E01000080910E0136
:1002800090910F0182309105B1F08330910520F4F7
:100290008130910541F031C083309105C9F084303F
:1002A000910531F12AC087E08A8388E290E02A81B3
:1002B000FC01208322C08A818A3048F48A818F5FC2
:1002C0008A8388E290E02A81FC01208316C015C051
:1002D0008A818A3060F48A81882349F08A8181503A
:1002E0008A8388E290E02A81FC01208306C005C051
:1002F00088E290E0FC01108200000F900F90DF91E7
:10030000CF910895CF93DF93CDB7DEB781E290E030
:10031000FC01108282E290E02FEFFC01208387E253
:1003200090E02FEFFC01208388E290E0FC01108236
:1003300010920F0110920E010E949000FDCFF894D0
:02034000FFCFED
:0E034200000000020000000067000000000044
:00000001FF
