:100000000C9446000C9465000C9465000C946500FB
:100010000C9465000C9465000C9465000C946500CC
:100020000C9465000C9465000C9465000C946500BC
:100030000C9465000C9465000C9465000C946500AC
:100040000C9465000C9465000C9465000C9465009C
:100050000C9465000C9465000C9465000C9465008C
:100060000C9465000C9465000C9465000C9465007C
:100070000C9465000C9465000C9465000C9465006C
:100080000C9465000C9465000C94650011241FBE4F
:10009000CFEFD0E4DEBFCDBF11E0A0E0B1E0E2E4FD
:1000A000F3E000E00BBF02C007900D92AE30B10745
:1000B000D9F711E0AEE0B1E001C01D92A031B10767
:1000C000E1F70E9482010C949F010C940000CF93F1
:1000D000DF9300D01F92CDB7DEB789837B836A831D
:1000E00089818A3031F48A819B81BC018DE00E9434
:1000F000670080EC90E0FC018081882F90E08072A6
:1001000099270097B1F386EC90E02981FC012083C8
:1001100080E090E00F900F900F90DF91CF910895C5
:10012000CF93DF931F92CDB7DEB780E290E0FC0162
:1001300080818370898380910E0190910F018230BC
:100140009105C1F18330910530F4009769F0813059
:10015000910589F08CC08330910509F44AC0843040
:10016000910509F465C083C081E090E090930F0190
:1001700080930E0181C08981813039F482E090E062
:1001800090930F0180930E0114C08981823039F45D
:1001900083E090E090930F0180930E010AC0898163
:1001A000882339F484E090E090930F0180930E014E
:1001B00063C062C08981813039F482E090E090931D
:1001C0000F0180930E0114C08981823039F483E0DD
:1001D00090E090930F0180930E010AC089818330D3
:1001E00039F484E090E090930F0180930E0144C0B5
:1001F00043C08981813039F482E090E090930F010F
:1002000080930E0114C08981823039F483E090E03C
:1002100090930F0180930E010AC08981833039F4D5
:1002200084E090E090930F0180930E0125C024C0DC
:100230008981813039F482E090E090930F018093BE
:100240000E0114C08981823039F483E090E09093EC
:100250000F0180930E010AC08981833039F484E054
:1002600090E090930F0180930E0106C005C010929C
:100270000F0110920E01000080910E0190910F016C
:1002800082309105A1F08330910520F481309105F1
:1002900041F034C083309105D9F08430910549F1A3
:1002A0002DC088E290E027E0FC01208327C088E28F
:1002B00090E0FC018081893050F488E290E028E2EF
:1002C00030E0F90120812F5FFC01208317C016C0A8
:1002D00088E290E0FC018081882351F088E290E080
:1002E00028E230E0F90120812150FC01208306C082
:1002F00005C088E290E0FC01108200000F90DF91C1
:10030000CF910895CF93DF93CDB7DEB781E290E030
:10031000FC01108282E290E02FEFFC01208387E253
:1003200090E02FEFFC01208388E290E0FC01108236
:1003300010920F0110920E010E949000FDCFF894D0
:02034000FFCFED
:0E034200000000020000000067000000000044
:00000001FF
