:100000000C9446000C9465000C9465000C946500FB
:100010000C9465000C9465000C9465000C946500CC
:100020000C9465000C9465000C9465000C946500BC
:100030000C9465000C9465000C9465000C946500AC
:100040000C9465000C9465000C9465000C9465009C
:100050000C9465000C9465000C9465000C9465008C
:100060000C9465000C9465000C9465000C9465007C
:100070000C9465000C9465000C9465000C9465006C
:100080000C9465000C9465000C94650011241FBE4F
:10009000CFEFD0E4DEBFCDBF11E0A0E0B1E0E6E9F4
:1000A000F3E000E00BBF02C007900D92AE30B10745
:1000B000D9F711E0AEE0B1E001C01D92A031B10767
:1000C000E1F70E94A8010C94C9010C940000CF93A1
:1000D000DF9300D01F92CDB7DEB789837B836A831D
:1000E00089818A3031F48A819B81BC018DE00E9434
:1000F000670080EC90E0FC018081882F90E08072A6
:1001000099270097B1F386EC90E02981FC012083C8
:1001100080E090E00F900F900F90DF91CF910895C5
:10012000CF93DF931F92CDB7DEB780E290E0FC0162
:1001300080818370898380910E0190910F018230BC
:10014000910509F451C08330910530F4009769F0AE
:1001500081309105B1F0AFC08330910509F463C0DF
:100160008430910509F488C0A6C081E090E09093A6
:100170000F0180930E0188E290E027E0FC012083CC
:100180009FC08981882361F481E090E090930F0102
:1001900080930E0188E290E027E0FC01208323C0D9
:1001A0008981813061F482E090E090930F01809327
:1001B0000E0188E290E027E0FC01208314C08981D1
:1001C000823039F483E090E090930F0180930E0128
:1001D0000AC08981833039F484E090E090930F0164
:1001E00080930E016DC06CC08981813039F482E04A
:1001F00090E090930F0180930E0114C089818230AA
:1002000039F483E090E090930F0180930E010AC0CF
:100210008981833039F484E090E090930F018093DA
:100220000E014EC04DC08981813039F482E090E0EA
:1002300090930F0180930E011EC08981823039F4A2
:1002400083E090E090930F0180930E0114C08981A8
:10025000833039F484E090E090930F0180930E0195
:100260000AC08981882339F481E090E090930F01DE
:1002700080930E0125C024C08981813039F482E049
:1002800090E090930F0180930E0114C08981823019
:1002900039F483E090E090930F0180930E010AC03F
:1002A0008981833039F484E090E090930F0180934A
:1002B0000E0106C005C010920F0110920E01000041
:1002C00080910E0190910F0182309105A1F0833051
:1002D000910520F48130910541F036C083309105BD
:1002E000D9F08430910559F12FC088E290E027E0E1
:1002F000FC01208329C088E290E0FC0180818930E4
:1003000050F488E290E028E230E0F90120812F5F8C
:10031000FC01208319C018C088E290E0FC018081B4
:10032000882361F028E230E088E290E0FC0140811F
:100330004150FC014083F901408306C005C088E2BA
:1003400090E0FC01108200000F90DF91CF910895A2
:10035000CF93DF93CDB7DEB781E290E0FC0110824E
:1003600082E290E02FEFFC01208387E290E02FE013
:10037000FC01208388E290E0FC01108210920F01C2
:1003800010920E0188E290E0FC0110820E94900021
:06039000FDCFF894FFCF41
:0E0396000000000200000000670000000000F0
:00000001FF
