:100000000C9446000C9465000C9465000C946500FB
:100010000C9465000C9465000C9465000C946500CC
:100020000C9465000C9465000C9465000C946500BC
:100030000C9465000C9465000C9465000C946500AC
:100040000C9465000C9465000C9465000C9465009C
:100050000C9465000C9465000C9465000C9465008C
:100060000C9465000C9465000C9465000C9465007C
:100070000C9465000C9465000C9465000C9465006C
:100080000C9465000C9465000C94650011241FBE4F
:10009000CFEFD0E4DEBFCDBF11E0A0E0B1E0ECEFE8
:1000A000F2E000E00BBF02C007900D92AE30B10746
:1000B000D9F711E0AEE0B1E001C01D92A031B10767
:1000C000E1F70E945F010C947C010C940000CF9337
:1000D000DF9300D01F92CDB7DEB789837B836A831D
:1000E00089818A3031F48A819B81BC018DE00E9434
:1000F000670080EC90E0FC018081882F90E08072A6
:1001000099270097B1F386EC90E02981FC012083C8
:1001100080E090E00F900F900F90DF91CF910895C5
:10012000CF93DF931F92CDB7DEB780E290E0FC0162
:100130008081898380910E0190910F018230910519
:1001400069F18330910530F4009781F08130910599
:10015000A1F078C08430910509F452C08430910533
:1001600070F18530910509F45CC06CC081E090E0CD
:1001700090930F0180930E016AC08981803839F411
:1001800082E090E090930F0180930E0160C081E0C7
:1001900090E090930F0180930E0159C089818430C3
:1001A00039F483E090E090930F0180930E014FC0EB
:1001B00082E090E090930F0180930E0148C0898106
:1001C000843039F483E090E090930F0180930E0126
:1001D00010C08981882339F484E090E090930F0166
:1001E00080930E0106C081E090E090930F01809310
:1001F0000E0182E090E090930F0180930E0127C0E2
:100200008981823039F485E090E090930F018093EA
:100210000E011DC081E090E090930F0180930E01CC
:1002200016C08981882339F485E090E090930F010E
:1002300080930E010CC081E090E090930F018093B9
:100240000E0105C010920F0110920E010000809166
:100250000E0190910F0183309105E1F084309105FA
:1002600038F48130910559F08230910569F023C04E
:1002700084309105A9F085309105C1F01CC085E25C
:1002800090E0FC01108217C085E290E021E0FC01C3
:10029000208311C085E290E021E0FC0120830BC0A7
:1002A00085E290E021E0FC01208305C085E290E03A
:1002B000FC01108200000F90DF91CF910895CF9341
:1002C000DF93CDB7DEB781E290E0FC01108282E2DD
:1002D00090E02FEFFC01208384E290E02FE0FC010E
:1002E000208385E290E0FC01108210920F011092B1
:0C02F0000E010E949000FDCFF894FFCF9B
:0E02FC0000000002000000006700000000008B
:00000001FF
