:100000000C9446000C945D000C945D000C945D0013
:100010000C945D000C945D000C945D000C945D00EC
:100020000C945D000C945D000C945D000C945D00DC
:100030000C945D000C945D000C945D000C945D00CC
:100040000C945D000C945D000C945D000C945D00BC
:100050000C945D000C945D000C945D000C945D00AC
:100060000C945D000C945D000C945D000C945D009C
:100070000C945D000C945D000C945D000C945D008C
:100080000C945D000C945D000C945D0011241FBE67
:10009000CFEFD0E4DEBFCDBF11E0A0E0B1E0E6ECF1
:1000A000F1E000E00BBF02C007900D92AE30B10747
:1000B000D9F70E9488000C94E1000C940000CF93C3
:1000C000DF9300D01F92CDB7DEB789837B836A832D
:1000D00089818A3031F48A819B81BC018DE00E9444
:1000E0005F0080EC90E0FC018081882F90E08072BE
:1000F00099270097B1F386EC90E02981FC012083D9
:1001000080E090E00F900F900F90DF91CF910895D5
:10011000CF93DF9300D000D01F92CDB7DEB781E23E
:1001200090E0FC01108282E290E02FEFFC0120833E
:1001300084E290E0FC01108285E290E02FEFFC0168
:10014000208387E290E02FEFFC01208388E290E09B
:10015000FC01108219821A821C821D821B8280E29D
:1001600090E0FC0180818A8383E290E0FC01808141
:100170008D8381E08B831BC08A8181708C838C810D
:10018000813019F489818F5F89838A8186958A837A
:100190008D8181708C838C81813019F489818F5F8E
:1001A00089838D8186958A838B818F5F8B838B81F9
:1001B000893010F388E290E02981FC0120831982C4
:0601C000CECFF894FFCF42
:0E01C60000000002000000005F0000000000CA
:00000001FF
