:100000000C944D000C946C000C946C000C946C00DF
:100010000C946C000C946C000C946C000C946C00B0
:100020000C946C000C946C000C946C000C946C00A0
:100030000C946C000C946C000C946C000C946C0090
:100040000C946C000C946C000C946C000C946C0080
:100050000C946C000C946C000C946C000C946C0070
:100060000C946C000C946C000C946C000C946C0060
:100070000C946C000C946C000C946C000C946C0050
:100080000C946C000C946C000C946C00C600CD00B9
:10009000F500190120014101480111241FBECFEFD5
:1000A000D0E4DEBFCDBF11E0A0E0B1E0E4E0F4E0D9
:1000B00000E00BBF02C007900D92AE30B107D9F738
:1000C00011E0AEE0B1E001C01D92A031B107E1F74F
:1000D0000E94DA010C9400020C940000CF93DF938D
:1000E00000D01F92CDB7DEB789837B836A83898175
:1000F0008A3031F48A819B81BC018DE00E946E00C0
:1001000080EC90E0FC018081882F90E0807299273C
:100110000097B1F386EC90E02981FC01208380E018
:1001200090E00F900F900F90DF91CF910895CF93B3
:10013000DF9300D0CDB7DEB780E290E0FC01808194
:10014000882F90E08170992721E0009709F020E046
:10015000298380E290E0FC018081809582708A830F
:1001600080910E0190910F01CC01A0E0B0E040E041
:1001700050E026E030E0841B950B2817390708F47F
:10018000AFC08A5B9F4FFC010C94F70181E090E0C7
:1001900090930F0180930E01A8C08981882351F4A8
:1001A0008A81882339F481E090E090930F01809355
:1001B0000E011AC08981882351F08A81882339F47D
:1001C00082E090E090930F0180930E010DC0898131
:1001D000882351F48A81882339F084E090E0909359
:1001E0000F0180930E0181C080C08981882351F066
:1001F0008A81882339F482E090E090930F01809304
:100200000E0109C08981882331F483E090E0909346
:100210000F0180930E018981882351F08A81882300
:1002200039F081E090E090930F0180930E015DC062
:100230005CC086E090E090930F0180930E0155C062
:100240008A81882339F084E090E090930F018093B5
:100250000E0109C08A81882331F485E090E09093F3
:100260000F0180930E018981882351F08A818823B0
:1002700039F081E090E090930F0180930E0135C03A
:1002800034C086E090E090930F0180930E012DC062
:100290008981882351F08A81882339F081E090E0B8
:1002A00090930F0180930E011AC08981882351F029
:1002B0008A81882339F482E090E090930F01809343
:1002C0000E010DC08981882351F48A81882339F079
:1002D00084E090E090930F0180930E0106C005C06A
:1002E00010920F0110920E01000080910E0190916A
:1002F0000F0183309105D9F08430910540F48130AD
:10030000910581F08230910509F44CC04EC08530D2
:10031000910531F18530910508F446C0863091058C
:10032000C1F143C088E290E0FC0110823EC088E247
:1003300090E0FC018081893050F488E290E028E26E
:1003400030E0F90120812F5FFC0120832EC088E27C
:1003500090E028E230E0F9012081FC01208325C0F3
:1003600088E290E0FC018081882351F088E290E0EF
:1003700028E230E0F90120812150FC01208315C0E2
:1003800088E290E028E230E0F9012081FC0120833E
:100390000CC088E290E028E230E0F9012081FC0105
:1003A000208303C0000001C000000F900F90DF9178
:1003B000CF910895CF93DF93CDB7DEB781E290E080
:1003C000FC01108282E290E02FEFFC01208387E2A3
:1003D00090E02FEFFC01208388E290E0FC01108286
:1003E00010920F0110920E010E949700FDCFEE0FA8
:1003F000FF1F0024001C0BBE0790F691E02D09940E
:04040000F894FFCF9E
:0E04040000000002000000006E00000000007A
:00000001FF
