:100000000C9446000C9465000C9465000C946500FB
:100010000C9465000C9465000C9465000C946500CC
:100020000C9465000C9465000C9465000C946500BC
:100030000C9465000C9465000C9465000C946500AC
:100040000C9465000C9465000C9465000C9465009C
:100050000C9465000C9465000C9465000C9465008C
:100060000C9465000C9465000C9465000C9465007C
:100070000C9465000C9465000C9465000C9465006C
:100080000C9465000C9465000C94650011241FBE4F
:10009000CFEFD0E4DEBFCDBF11E0A0E0B1E0E2ECF5
:1000A000F2E000E00BBF02C007900D92AE30B10746
:1000B000D9F711E0AEE0B1E001C01D92A031B10767
:1000C000E1F70E9442010C945F010C940000CF9371
:1000D000DF9300D01F92CDB7DEB789837B836A831D
:1000E00089818A3031F48A819B81BC018DE00E9434
:1000F000670080EC90E0FC018081882F90E08072A6
:1001000099270097B1F386EC90E02981FC012083C8
:1001100080E090E00F900F900F90DF91CF910895C5
:10012000CF93DF931F92CDB7DEB780E290E0FC0162
:100130008081882F90E08170992721E0009709F055
:1001400020E0298380910E0190910F01813091056B
:1001500091F08130910540F08230910531F183308A
:10016000910509F443C060C081E090E090930F01D5
:1001700080930E015EC08981882339F481E090E08C
:1001800090930F0180930E010FC08981882361F045
:1001900082E090E090930F0180930E0185E290E061
:1001A00023E0FC01208345C044C08981882339F0C5
:1001B00082E090E090930F0180930E0109C0898145
:1001C000882331F483E090E090930F0180930E0137
:1001D00085E290E0FC018081803338F081E090E09E
:1001E00090930F0180930E0124C023C0898188233E
:1001F00039F483E090E090930F0180930E0113C0D7
:100200008981882381F082E090E090930F018093B0
:100210000E0185E290E025E230E0F9012081220F15
:10022000FC01208306C005C010920F0110920E0140
:10023000000080910E0190910F018230910561F0D4
:100240008330910591F08130910509F017C085E266
:1002500090E0FC01108212C085E290E025E230E0DF
:10026000F9012081FC01208309C085E290E025E2AC
:1002700030E0F9012081FC01208300000F90DF9124
:10028000CF910895CF93DF93CDB7DEB781E290E0B1
:10029000FC01108282E290E02FEFFC01208384E2D7
:1002A00090E02FEFFC01208385E290E0FC011082BA
:1002B00010920F0110920E010E949000FDCFF89451
:0202C000FFCF6E
:0E02C2000000000200000000670000000000C5
:00000001FF
